:020000040800F2
:100000005002002001010008390200083B020008EC
:100010003F020008430200084702000800000000F9
:100020000000000000000000000000004B0200087B
:100030004D020008000000004F02000851020008B5
:100040001701000817010008170100081701000830
:100050001701000817010008170100081701000820
:100060001701000817010008170100081701000810
:100070001701000817010008170100081701000800
:1000800017010008170100081701000817010008F0
:1000900017010008170100081701000817010008E0
:1000A00017010008170100081701000817010008D0
:1000B000C101000817010008170100081701000816
:1000C00017010008170100081701000817010008B0
:1000D00017010008170100086B220008170100082B
:1000E000170100081701000817010008DFF80CD0FD
:1000F00002F0F6FB004800471D01000850020020F6
:1001000005480047FEE7FEE7FEE7FEE7FEE7FEE7FD
:10011000FEE7FEE7FEE7FEE7ED00000800F01CFB4F
:1001200002F0AEF94BE03C480078012807D13BA033
:1001300002F0E8FB00F0D6F8002037490870364896
:10014000007802280AD100F0B2F84FF4FA7001F0FA
:100150005BFF00F0E9F900202F4908702E48007875
:10016000032804D100F0E0F900202B4908702A4848
:100170000078042804D100F057FA002026490870BE
:1001800025480078052804D100F09AFA0020224979
:10019000087021480078062804D100F034F90020C6
:1001A0001D49087020480078012808D100201E4908
:1001B00008701E49087002F087F802F069F8B2E78B
:1001C00010B50121880701F034F901281FD1174823
:1001D0000078E0B1154800781549097888420FD1B8
:1001E00014480078401C1349087008460078042819
:1001F0000DDB01200C49087000200E49087006E054
:1002000000200C490870094800780949087001214C
:10021000880701F01FF910BD0400002079756C6992
:100220006E6A756E0D0A00000300002000000020B9
:100230000100002002000020704700BFFEE700BF61
:10024000FEE700BFFEE700BFFEE77047704770475C
:1002500070477FB505460C460121084601F00FFCAA
:10026000ADF80850ADF804400020ADF80600ADF838
:100270000A0001A94FF0804000F077FB01221146EF
:10028000900700F013FE0121880700F0F4FD1C2008
:100290008DF8000001208DF8010003208DF8020088
:1002A00001208DF80300684600F08BFA7FBD10B581
:1002B000002414E01E21012002F095FA1E210020E6
:1002C00002F0BBFA322001F09FFE1E21002002F056
:1002D0008AFA1E21012002F0B0FA601CC4B2052C7B
:1002E000E8DB10BD10B500241E21002002F0A5FAA5
:1002F000012001F089FE1E21002002F074FA012085
:1003000001F082FE1421012002F049FA012001F0DF
:100310007BFE1421012002F01EFA012001F074FE80
:100320001E21012002F05FFA012001F06DFE1E2166
:10033000012002F082FA00BF54E01E21012002F0E9
:1003400052FA012001F060FE1E21012002F075FA30
:10035000012001F059FE1E21002002F0FCF90120CD
:1003600001F052FE1E21002002F019FA012001F0D6
:100370004BFE1E21002002F060FA012001F044FE35
:100380001E21002002F02FFA012001F03DFE1E2167
:10039000002002F052FA012001F036FE1E2100205A
:1003A00002F021FA012001F02FFE1E21012002F0AF
:1003B000F6F9012001F028FE1E21012002F0CBF900
:1003C000012001F021FE1E21012002F00CFA012083
:1003D00001F01AFE1E21012002F02FFA012001F087
:1003E00013FE641C052CA8DB1421002002F0D7F9B1
:1003F000012001F009FE1421002002F0ACF90120D7
:1004000001F002FE10BD10B500241E21012002F0F3
:10041000EAF9012001F0F8FD1E21012002F00DFA99
:10042000012001F0F1FD1421012002F094F90120D6
:1004300001F0EAFD1421012002F0B1F9012001F0E0
:10044000E3FD1E21002002F0F8F9012001F0DCFD9F
:100450001E21002002F0C7F900BF54E01E21002039
:1004600002F0EBF9012001F0CFFD1E21002002F087
:10047000BAF9012001F0C8FD1E21002002F08FF919
:10048000012001F0C1FD1E21002002F064F90120CD
:1004900001F0BAFD1E21012002F0A5F9012001F0B2
:1004A000B3FD1E21012002F0C8F9012001F0ACFDCE
:1004B0001E21012002F097F9012001F0A5FD1E2167
:1004C000012002F0BAF9012001F09EFD1E21012059
:1004D00002F041F9012001F097FD1E21012002F0F8
:1004E0005EF9012001F090FD1E21002002F0A5F927
:1004F000012001F089FD1E21002002F074F9012085
:1005000001F082FD641C052CA8DB1421002002F000
:1005100022F9012001F078FD1421002002F03FF9BA
:10052000012001F071FD10BD10B500241421002040
:1005300002F083F9012001F067FD1421002002F090
:1005400052F9012001F060FD1421002002F003F9AE
:10055000012001F059FD00BF0FE02821012002F029
:10056000FAF8012001F050FD2821002002F0F3F8F4
:10057000012001F049FD601CC4B20A2CEDDB1421FE
:10058000012002F0E8F8012001F03EFD14210120D5
:1005900002F053F9012001F037FD1421012002F08F
:1005A00022F94FF4FA6001F02FFD1421012002F02E
:1005B0001AF9012001F028FD1421012002F03DF973
:1005C000012001F021FD1421002002F0E8F80120B3
:1005D00001F01AFD00240FE02821012002F0DFF8CD
:1005E000012001F011FD2821002002F0D8F801209F
:1005F00001F00AFD601CC4B20A2CEDDB14210120BD
:1006000002F0CDF8012001F0FFFC1421002002F0DF
:1006100014F9012001F0F8FC1421002002F0E3F8A5
:10062000012001F0F1FC10BD10B5002400BF44E032
:100630001E21012002F0D7F8012001F0E5FC1E2167
:10064000012002F0FAF8012001F0DEFC1421012063
:1006500002F0A5F8012001F0D7FC1E21002002F0D5
:10066000ECF8012001F0D0FC1E21002002F0BBF8C4
:100670001E21002002F0E1F8012001F0C5FC1E213E
:10068000002002F0B0F8012001F0BEFC142100208F
:1006900002F085F8012001F0B7FC1E21012002F0D4
:1006A000A2F8012001F0B0FC1E21012002F0C5F8E3
:1006B000012001F0A9FC601CC4B2032CB8DB10BD02
:1006C00010B5002400BF44E01E21002002F0B5F860
:1006D000012001F099FC1E21002002F084F8012085
:1006E00001F092FC1421002002F035F8012001F005
:1006F0008BFC1E21012002F076F8012001F084FC21
:100700001E21012002F099F81E21012002F06BF851
:10071000012001F079FC1E21012002F08EF8012059
:1007200001F072FC1421012002F015F8012001F003
:100730006BFC1E21002002F080F8012001F064FC17
:100740001E21002002F04FF8012001F05DFC601C2A
:10075000C4B2032CB8DB10BD10B501F011FC482069
:1007600001F038FC01F0EEFC4FF4E13001F09AFCAE
:100770004FF4E13001F0ECFC8C200B490870822032
:100780000A49087096200A490870822009490870B1
:1007900041F61F413120FFF75CFD01F03FFF01F002
:1007A000A7FE01F051FE10BD05000020060000204C
:1007B000070000200800002031490143314A116040
:1007C000704770B5002100230F22C47804B32D4C6C
:1007D000246804F4E064C4F5E064210AC1F1040370
:1007E000CA40447804FA03F1847814402143090193
:1007F000254C0678A155047804F01F050124AC406F
:1008000005786D11AD0005F1E025C5F8004109E05E
:10081000047804F01F050124AC401C4D06787611C5
:1008200045F8264070BD1A4A0A400243154B1B1F6B
:100830001A60704739B1134A121D12680243114BF6
:100840001B1D1A6006E00F4A121D126882430D4BF1
:100850001B1D1A607047042808D14FF0E021096978
:1008600041F004014FF0E022116107E04FF0E02178
:10087000096921F004014FF0E02211617047000086
:100880000000FA050CED00E000E400E080E100E08B
:1008900080FFFF1F10B50446F749601A8C4245D00F
:1008A0000CDCB4F1804F1DD0F448204418B3B0F5EF
:1008B000806F29D0B0F5006F54D12EE0B0F5806F75
:1008C0003DD0B0F58E3F03D0B0F5923F4AD13FE026
:1008D0000121C80201F0E0F800214FF4006001F0AE
:1008E000DBF840E00121084601F0E3F80021012097
:1008F00001F0DFF837E00121022001F0DAF80021F1
:10090000022001F0D6F82EE00121042001F0D1F8F8
:100910000021042001F0CDF825E00121082001F09C
:10092000C8F80021082001F0C4F81CE001211020C3
:1009300001F0BFF80021102001F0BBF813E0012105
:10094000202001F0B6F80021202001F0B2F80AE0E2
:100950000121480301F0A0F800214FF4005001F0FC
:100960009BF800E000BF00BF10BD028802F08F02BC
:100970000280CA884B881A4303881A4302808A88F7
:1009800082850A880285BE4A904202D0BD4A9042C2
:1009900001D10A7A028601228282704770B5002452
:1009A00000220023058C4FF6FE7635400584028C2C
:1009B0008388048B4FF68F752C400D882C43751E51
:1009C0002A400D892A434D882A43CD888586AC4D1F
:1009D000A84202D0AB4DA84213D14FF6F7752A407A
:1009E0004D892A434FF6FB752A408D882A4347F6E6
:1009F000FF652B4047F6FF552B408D892B43CD8952
:100A00002B4383800483028470BD70B500240022D0
:100A10000023058C4FF6EF7635400584028C8388E1
:100A2000048B48F6FF752C400D884FF6FF7606EADA
:100A300005252C434FF6DF752A400D8906EA05157A
:100A40002A434D8806EA05152A43CD8805878C4D33
:100A5000A84202D08B4DA8421DD14FF67F752A4087
:100A60004D894FF6FF7606EA05152A434FF6BF7506
:100A70002A408D8806EA05152A4347F6FF352B40A4
:100A800047F2FF752B408D8906EA85052B43CD89FA
:100A900006EA85052B4383800483028470BD70B50C
:100AA000002400220023058C4FF6FF6635400584A4
:100AB000028C8388848B4FF68F752C400D882C43D5
:100AC0004FF6FF552A400D894FF6FF7606EA0525B9
:100AD0002A434D8806EA05252A43CD888587684D37
:100AE000A84202D0674DA8421DD14FF2FF752A409F
:100AF0004D894FF6FF7606EA05252A434FF6FF3566
:100B00002A408D8806EA05252A4346F6FF752B40C4
:100B100045F6FF752B408D8906EA05152B43CD89D7
:100B200006EA05152B4383808483028470BD70B56B
:100B3000002400220023058C4EF6FF763540058404
:100B4000028C8388848B48F6FF752C400D884FF605
:100B5000FF7606EA05252C434DF6FF752A400D89E0
:100B600006EA05352A434D8806EA05352A43CD882D
:100B7000A0F84050424DA84202D0424DA84207D1B1
:100B8000C3F30D038D894FF6FF7606EA85152B43D7
:100B900083808483028470BD828B4FF2FF331A40BE
:100BA0008283828B4FF6FF7303EA01231A43828309
:100BB0007047F0B50C461546002100220026078C30
:100BC0004EF6FF7C07EA0C070784818B028C4FF6F8
:100BD000FF7707EA043640F6FF4739404FF6FF77C4
:100BE00007EA05274FF6FF7C0CEA033C47EA0C07AF
:100BF00039434DF6FF773A4046F480573A438183B4
:100C00000284F0BD828B4FF6F3731A408283828B8D
:100C10000A4382837047F0B50C4615460021002236
:100C20000026078C4FF6FF6C07EA0C070784818BC0
:100C3000028C4FF6FF7707EA04264FF60C7739400F
:100C40004FF6FF7707EA03172F4339434FF6FF5755
:100C50003A4046F480773A4381830284F0BD028BA8
:100C60004FF2FF331A400283028B4FF6FF7303EA01
:100C700001231A43028370470010004000FCFFBFAD
:100C8000002C014000340140F0B50C46154600210F
:100C900000220026078C4FF6EF7C07EA0C0707843A
:100CA000018B028C4FF6FF7707EA041640F6FF47E8
:100CB00039404FF6FF7707EA033739434FF6FF779E
:100CC00007EA052739434FF6DF773A4046F0100729
:100CD0003A4301830284F0BD028B4FF6F3731A404E
:100CE0000283028B0A4302837047F0B50C46154617
:100CF00000210022068C4FF6FE773E400684018BD1
:100D0000028C4FF60C7631407E1C06EA03162E4309
:100D100031437E1E324044F0010632430183028497
:100D2000F0BD70B505460C46208850B92389A288CD
:100D300061882846FFF7D9FFE1882846FFF7CCFFF6
:100D400025E0208804280AD12389A28861882846C2
:100D5000FFF79AFFE1882846FFF781FF17E0208818
:100D600008280AD12389A28861882846FFF753FF03
:100D7000E1882846FFF746FF09E02389A2886188B9
:100D80002846FFF716FFE1882846FFF705FF70BDEC
:100D90002DE9F04105460C4600260127608808B978
:100DA000022600E00026A088012801D1022700E0E9
:100DB00001272088A0B92389A28861882846FFF7E7
:100DC00094FFE1882846FFF787FF23893A4631469A
:100DD0002846FFF759FFE1882846FFF740FF13E058
:100DE0002389A28861882846FFF74EFFE1882846BC
:100DF000FFF735FF23893A4631462846FFF775FF4E
:100E0000E1882846FFF768FFBDE8F0810A884B8833
:100E10001A438B881A43CB881A430B891A434B8990
:100E20001A438B891A43A0F8442070474FF6FF718C
:100E3000818000210180C1804180017270470021C2
:100E4000018041808180C180018141818181C18196
:100E50007047002101804180012181800021C180F3
:100E6000018170470021018041808180C180018122
:100E700041818181704721B1028842F001020280E4
:100E800004E0028840F2FE331A400280704731B11C
:100E9000B0F8442042F40042A0F8442005E0B0F845
:100EA0004420C2F30E02A0F8442070471AB183898F
:100EB0000B43838102E083898B4383817047818266
:100EC000704741EA0203A0F8483070471AB183899D
:100ED0000B43838102E083898B43838170470189BF
:100EE0004FF6F8721140018170470A4600210189CE
:100EF0004FF68F73194011430181704730B5044696
:100F00000D4629462046FFF7F0FF208940F00700F4
:100F1000208130BD2DE9F04104460D4616461F469E
:100F2000602D06D13B46012231462046FFF7ACFE3C
:100F300005E03B46012231462046FFF7D6FE294612
:100F40002046FFF7D2FF208940F007002081BDE84E
:100F5000F08170B50C4600210189C9B244EA02054E
:100F60004FF6FF7606EA032635432943018170BD1B
:100F70002DE9F04105460E461746984600244346A3
:100F80003A4631462846FFF7E4FF2C894FF6F870C1
:100F9000044044F007044FF68F70044044F070049E
:100FA0002C81BDE8F081F0B504460D4616461F467B
:100FB0003B46324629462046FFF7CBFF208940F4C6
:100FC00080402081F0BD0185828270470A46002161
:100FD000018840F28F331940114301807047F0B50A
:100FE0000C4615461E460021002200230189028B73
:100FF000038C4FF6F877394021434FF6FC473A40CF
:1010000040F201173A434FF6DD773B404FF6FF774A
:1010100007EA06172F433B43018102830384F0BD97
:101020000A460021018B4FF68F731940114301834B
:1010300070470A460021018B48F6FF7319404FF6AE
:10104000FF7303EA02231943018370470A46002114
:10105000818B4FF68F7319401143818370470A4685
:101060000021818B48F6FF7319404FF6FF7303EAA6
:10107000022319438183704721B1028842F0800224
:10108000028004E0028840F27F331A4002807047F9
:1010900021B1828842F00402828004E082884FF607
:1010A000FB731A408280704721B1828842F00802A7
:1010B000828004E082884FF6F7731A40828070477E
:1010C00021B1828842F00102828004E082884FF6DA
:1010D000FE731A40828070470A460021018B4FF64A
:1010E000F77319401143018370470A460021018BB1
:1010F0004FF2FF7319404FF6FF7303EA02231943BF
:10110000018370470A460021818B4FF6F77319401F
:101110001143818370470A460021818B4FF2FF7390
:1011200019404FF6FF7303EA022319438183704786
:101130000A460021018B4FF6FB73194011430183CE
:1011400070470A460021018B4FF6FF3319404FF6D6
:10115000FF7303EA02231943018370470A46002103
:10116000818B4FF6FB7319401143818370470A4608
:101170000021818B4FF6FF3319404FF6FF7303EACE
:1011800002231943818370470A460021018B4FF6E1
:101190007F7319401143018370470A460021018B78
:1011A000C1F30E014FF6FF7303EA022319430183D3
:1011B00070470A460021818B4FF67F731940114317
:1011C000818370470A460021818BC1F30E014FF6DF
:1011D000FF7303EA02231943818370470A46002103
:1011E000018C4FF6FD7319401143018470470A4684
:1011F0000021018C4FF6F7731940114301847047A9
:101200000A460021018C4FF6DF7319404FF6FF7339
:1012100003EA02131943018470470A460021018C36
:101220004FF67F7319404FF6FF7303EA0213194319
:10123000018470470A460021018C4FF6FF53194084
:101240004FF6FF7303EA02231943018470470A46ED
:101250000021018C4FF2FF7319404FF6FF7303EA30
:1012600002231943018470470A460021018C4DF680
:10127000FF7319404FF6FF7303EA023319430184E9
:10128000704710B5038C01248C40A3430384038C66
:1012900002FA01F4A4B22343038410BD10B5038CF9
:1012A00004248C40A3430384038C02FA01F4A4B207
:1012B0002343038410BD30B5038C01248C40A34329
:1012C000038409B1082918D100F1180303EB610365
:1012D0001B684FF68F74234000F1180404EB61047F
:1012E000236000F1180303EB61031B68134300F153
:1012F000180404EB610423601FE00B1FC3F34E04CA
:1013000000F118031B5948F6FF7423400C1FC4F367
:101310004E0500F1180463510B1FC3F34E0400F196
:1013200018031B594FF6FF7404EA022423430C1FD1
:10133000C4F34E0500F11804635130BD21B1028899
:1013400042F00202028004E0028840F2FD331A40BB
:101350000280704721B1028842F00402028004E05A
:10136000028840F2FB331A400280704721B1828824
:1013700042F08002828004E082884FF67F731A4038
:1013800082807047028840F2F7331A400280028858
:101390000A430280704782884FF68F731A4082801A
:1013A00082880A438280704702894FF6F8731A4098
:1013B000028102890A430281704702894FF67F73D6
:1013C0001A40028102890A43028170478184704772
:1013D0008185704781867047018770478187704794
:1013E000A0F8401070470288D2B2028002880A43F7
:1013F000028070470146888E70470146088F70470B
:101400000146888F70470146B1F840007047014699
:10141000888C70470146088D704702460020138A69
:101420000B400BB1012000E000207047CA4302824C
:10143000704730B50246002000230024158A05EAD3
:101440000103958905EA010413B10CB1012000E004
:10145000002030BDCA4302827047000010B5044628
:10146000C649601A8C422FD009DCC548204480B19F
:10147000B0F5806F16D0B0F5006F4AD11BE0B0F523
:10148000806F2AD0B0F5006F30D0B0F5406F40D1FA
:1014900035E00121042000F0FFFA0021042000F0D3
:1014A000FBFA37E00121082000F0F6FA00210820BD
:1014B00000F0F2FA2EE00121102000F0EDFA0021F8
:1014C000102000F0E9FA25E00121202000F0E4FAE4
:1014D0000021202000F0E0FA1CE00121402000F073
:1014E000DBFA0021402000F0D7FA13E00121802030
:1014F00000F0D2FA0021802000F0CEFA0AE00121AB
:10150000080200F0C9FA00214FF4807000F0C4FA1C
:1015100000E000BF00BF10BD10B50121084600F07B
:10152000BBFA0021012000F0B7FA10BD2DE9F0410F
:10153000024600250026002000230024002791F801
:1015400003C00CF00F0591F803C00CF0100CBCF1B7
:10155000000F03D091F802C04CEA050591F800C0D5
:10156000BCF1000F31D0146800202BE04FF0010CCB
:101570000CFA00F3B1F800C00CEA03069E4220D139
:1015800083004FF00F0C0CFA03F7BC4305FA03FC81
:101590004CEA040491F803C0BCF1280F06D14FF0C7
:1015A000010C0CFA00FCC2F814C00AE091F803C068
:1015B000BCF1480F05D14FF0010C0CFA00FCC2F849
:1015C00010C0401C0828D1D31460B1F800C0BCF191
:1015D000FF0F34DD546800202EE000F1080C4FF0BE
:1015E000010808FA0CF3B1F800C00CEA03069E42A9
:1015F00021D183004FF00F0C0CFA03F7BC4305FA1E
:1016000003FC4CEA040491F803C0BCF1280F05D197
:1016100000F1080C08FA0CF8C2F8148091F803C025
:10162000BCF1480F07D100F1080C4FF0010808FA8F
:101630000CF8C2F81080401C0828CED35460BDE8D6
:10164000F0814FF6FF710180022181700421C17089
:1016500070470246002093680B400BB1012000E068
:10166000002070470146886880B27047024600201B
:10167000D3680B400BB1012000E000207047014609
:10168000C86880B2704701617047416170470AB114
:10169000016100E041617047C16070474FF48032E2
:1016A0000A43826181618261826982697047024670
:1016B0000020344B18684FF68073184040EA02103F
:1016C0000843304B186070472F49C8617047F0B528
:1016D0000A4600230024002100252A4E7168C0F329
:1016E000034583B200F44016B6F5401F08D121F03F
:1016F0007061244E766826F07066224F7E6012E09C
:1017000000F48016B6F5801F06D1032606FA05F40C
:10171000A14341F0706106E0460D360103FA06F67A
:10172000B14341F0706122B1460D360103FA06F66D
:101730003143144E7160F0BD30B500228B071C0F91
:101740000F2303FA04F20F4B08338C1053F82430A4
:1017500093430C4C08348D1044F8253023468C10EC
:1017600053F824308C07240F00FA04F42343054C6B
:1017700008348D1044F8253030BD000000140140BD
:1017800000F8FEBF0000014000002042DE48006873
:1017900040F00100DC49086008464068DB49084029
:1017A000D949486008460068D9490840D6490860C8
:1017B0000846006820F4802008600846406820F44D
:1017C000FE004860002088607047CF49096821F416
:1017D0008031CD4A11601146096821F480211160E1
:1017E000B0F5803F03D0B0F5802F0ED106E0C6499A
:1017F000096841F48031C44A116007E0C2490968B0
:1018000041F4A021C04A116000E000BF00BF704752
:1018100010B501460022002300204A11012A02D1FE
:10182000B94C236806E0022A02D1B74C236A01E0D2
:10183000B54C636A01F01F02012494401C400CB1B6
:10184000012000E0002010BD38B5002000900024E9
:10185000002500BF3120FFF7DBFF05460098401C44
:1018600000901DB90098B0F5A06FF3D13120FFF7BB
:10187000CFFF08B1012400E00024204638BD014616
:101880000020A14A106820F0F80040EAC100106072
:101890007047A04908607047024600209A4B58687C
:1018A00020F47C1042EA01031843974B58607047BC
:1018B00098490866704701460020934A506820F016
:1018C00003000843506070478F48406800F00C00E8
:1018D0007047014600208C4A506820F0F000084311
:1018E0005060704701460020874A506820F4E0604D
:1018F00008435060704701460020834A506820F436
:10190000605040EAC1005060704729B17E4A527A67
:1019100002437D4B5A7204E07B4A527A82437A4BEF
:101920005A7270477B49D8310860704701460020E1
:10193000754A506820F440400843506070470021C9
:10194000714A20321170704A82F82010012802D0AA
:1019500004280AD104E001216B4A2032117005E00D
:101960000521694A2032117000E000BF00BF7047B6
:101970006949086070476449096A0143624A116213
:101980007047654944390860704730B5002100222E
:10199000002400235C4D6D6805F00C0121B1042981
:1019A00005D0082923D105E05C4D056022E05B4DA0
:1019B00005601FE0544D6D6805F47012022505EBBB
:1019C0009242514D6D6805F480341CB9544D554315
:1019D00005600BE04C4D6D6805F400351DB1504DB0
:1019E0005543056002E04D4D5543056002E04B4D07
:1019F000056000BF00BF444D6D6805F0F0010909A6
:101A0000484D6B5C0568DD4045603F4D6D6805F4F1
:101A1000E061090A434D6B5C4568DD4085603A4DE5
:101A20006D6805F46051C90A3E4D6B5C4568DD4048
:101A3000C560354D6D6805F44041890B3A4D6B5CCE
:101A4000C568B5FBF3F5056130BD29B12E4A526971
:101A500002432D4B5A6104E02B4A526982432A4BC0
:101A60005A61704729B1284A92690243264B9A610C
:101A700004E0254A92698243234B9A61704729B159
:101A8000214AD2690243204BDA6104E01E4AD2693E
:101A900082431D4BDA61704729B11B4AD268024369
:101AA000194BDA6004E0184AD2688243164BDA60B8
:101AB000704729B1144A12690243134B1A6104E0BA
:101AC000114A12698243104B1A617047124940391A
:101AD000086070470F49C86470470B49C871704768
:101AE0000948406A40F080700749486270470146E3
:101AF0000020054A92680A400AB1012000E0002057
:101B00007047014988727047001002400000FFF8DA
:101B1000FFFFF6FE000042428004424200127A00BB
:101B200000093D00090000201900002010B50446FE
:101B3000D749601A8C422BD006DCD648204498B195
:101B4000B0F5806F38D119E0B0F5806F2AD0B0F5CC
:101B50006C4F31D101218803FFF79EFF00214FF424
:101B60008040FFF799FF28E001214804FFF7A1FF1B
:101B700000214FF40030FFF79CFF1EE00121880494
:101B8000FFF797FF00214FF48020FFF792FF14E04A
:101B90000121C804FFF78DFF00214FF40020FFF75B
:101BA00088FF0AE001210805FFF783FF00214FF4B9
:101BB0008010FFF77EFF00E000BF00BF10BD2DE9E1
:101BC000F04786B005460E460024A24600BF00BF7F
:101BD00000272F462C8A4CF6FF700440F0880443FF
:101BE0002C82AC894EF6F3100440B088318908434A
:101BF000718908430443AC81AC8A4FF6FF4004402E
:101C0000B0890443AC8201A8FFF7BFFEA248874217
:101C100002D1DDF810A001E0DDF80CA00AEBCA004B
:101C200000EB0A1031688900B0FBF1F86420B8FBC2
:101C3000F0F004012009642101FB1089322000EB3F
:101C40000910B0FBF1F000F00F0004432C8106B046
:101C5000BDE8F0874FF41651016000218180C180FA
:101C600001810C21418100218181704710B502461C
:101C70000020108A4FF2FF0318400B884C88234342
:101C80008C882343CC8823431843108210BD002145
:101C9000018041808180C180704721B1828942F4F6
:101CA0000052828104E082894DF6FF731A408281DE
:101CB0007047F0B503460024002600250020184692
:101CC000C1F3421401F01F06012707FA06F5012CA3
:101CD00001D10C3004E0022C01D1103000E01430AE
:101CE0001AB107682F43076002E00768AF43076037
:101CF000F0BD1AB1838A0B43838202E0838A8B434F
:101D000083827047028A4FF6F0731A400282028A79
:101D10000A430282704782894FF2FF731A40828120
:101D200082890A438281704721B1828942F002028E
:101D3000828104E082894FF6FD731A4082817047E8
:101D4000028A4FF6DF731A400282028A0A43028235
:101D5000704721B1028A42F48042028204E0028A82
:101D60004BF6FF731A4002827047C1F3080282806B
:101D7000704701468888C0F308007047818941F0A8
:101D8000010181817047028BD2B20283028B42EA49
:101D9000012202837047028B02F47F420283028B8E
:101DA0000A430283704721B1828A42F02002828274
:101DB00004E0828A4FF6DF731A408282704721B1B5
:101DC000828A42F01002828204E0828A4FF6EF7328
:101DD0001A408282704721B1828A42F008028282D0
:101DE00004E0828A4FF6F7731A4082827047828A33
:101DF0004FF6FB731A408282828A0A4382827047BE
:101E000021B1828A42F00202828204E0828A4FF685
:101E1000FD731A40828270470246002013880B40EF
:101E20000BB1012000E000207047CA4302807047D8
:101E300070B502460B460024002100250020C3F3A4
:101E4000421503F01F01012606FA01F1012D02D10E
:101E50009689314006E0022D02D1168A314001E018
:101E6000968A31401C12012606FA04F41688344082
:101E700011B10CB1012000E0002070BD10B50022AE
:101E800000230A1201249440A3B2DC43048010BD55
:101E9000004C004000BCFFBF003801400CB50020E2
:101EA000019000904748006840F480304549086040
:101EB00000BF4448006800F4003000900198401CC6
:101EC0000190009818B90198B0F5A06FF1D13D4884
:101ED000006800F4003010B10120009001E0002003
:101EE00000900098012844D13748006840F0100065
:101EF000354908600846006820F00300086008467D
:101F0000006840F0020008602E4840682D49486093
:101F10000846406848600846406840F48060486071
:101F20000846406820F47C1048600846406840F449
:101F3000E81048600846006840F08070086000BF04
:101F40002048006800F000700028F9D01D48406863
:101F500020F003001B4948600846406840F002003A
:101F6000486000BF1748406800F00C000828F9D10D
:101F700001E000BFFEE70CBD10B5FFF78FFF10BDFD
:101F800010B51048006840F001000E49086008468E
:101F900040680E4908400B494860084600680C49F3
:101FA0000840084908600846006820F4802008605E
:101FB0000846406820F4FE00486000208860FFF773
:101FC000DBFF10BD00100240002002400000FFF8BF
:101FD000FFFFF6FE10B504466FF00400FEF73BFC71
:101FE000E11704EB5171C1F3C701234A1170104688
:101FF000007800EB4001C1EBC0104FF6FF7101EA21
:10200000C0001E49088010BD01461C4A12884A4380
:102010004FF0E0235A6100229A6101221A6100BF49
:102020004FF0E022106900F001021AB100F4803292
:10203000002AF5D000224FF0E0231A619A61704720
:1020400001460D4A12784A434FF0E0235A610022BC
:102050009A6101221A6100BF4FF0E022106900F07E
:1020600001021AB100F48032002AF5D000224FF0AC
:10207000E0231A619A6170471E00002020000020B2
:1020800000BF704770B504460D46E1B22B48FFF71C
:102090006CFE00BF40212948FFF7BEFE0128F9D1A0
:1020A000204670BD10B586B00446012144F20400FC
:1020B000FFF7D8FC4FF40070ADF8140003208DF842
:1020C000160018208DF8170005A91D48FFF72EFAF5
:1020D0004FF48060ADF8140004208DF8170005A9B6
:1020E0001748FFF723FA25208DF8000003208DF80C
:1020F00001008DF8020001208DF803006846FEF70C
:1021000060FB01940020ADF80800ADF80A00ADF8BE
:102110000C00ADF810000C20ADF80E0001A9074826
:10212000FFF74DFD002240F225510448FFF7C1FDA5
:1021300001210248FFF7B1FD06B010BD0038014093
:102140000008014010B54FF4A060FEF735FB10BD4C
:1021500010B586B0044601210420FFF783FC01215D
:102160004804FFF78CFC0420ADF8140003208DF820
:10217000160018208DF8170005A97448FFF7D6F946
:102180000820ADF8140004208DF8170005A96F4849
:10219000FFF7CCF926208DF8000003208DF8010010
:1021A00002208DF8020001208DF803006846FEF73A
:1021B00008FB01940020ADF80800ADF80A00ADF866
:1021C0000C00ADF810000C20ADF80E0001A960481D
:1021D000FFF7F5FC012240F225515D48FFF769FD4C
:1021E00001215B48FFF759FD06B010BD00BF5849FB
:1021F000098801F080010029F9D05549091D08809E
:1022000070470CE000BF524A128802F08002002A98
:10221000F9D002784E4B1B1D1A80401C491E002924
:10222000F0D1704710B504460BE014F8011B484884
:10223000FFF79BFD00BF80214548FFF7EDFD00281B
:10224000F9D020780028F0D110BD4249424A1278D6
:10225000885441490978491C3F4A11701146097850
:102260000F2901DB00211170704710B540F2255194
:102270003748FFF7DDFD50B13548FFF77AFDC4B2AE
:102280002046FFF7E2FF20213148FFF7CEFD10BDC9
:10229000002004E000212F4A1154411CC8B20A2832
:1022A000F8DB704730B50346002406E0641C944216
:1022B00001D1002030BD5B1C491C18780D78A84264
:1022C000F4D04FF0FF30F5E700B5062223A12148F6
:1022D000FFF7E8FF18B901202249087034E0052211
:1022E00021A11C48FFF7DEFF18B902201D49087024
:1022F0002AE005221EA11748FFF7D4FF18B90320D2
:102300001849087020E005221BA11248FFF7CAFFF8
:1023100018B904201349087016E0042218A10D48CA
:10232000FFF7C0FF18B905200E4908700CE0042221
:1023300015A10848FFF7B6FF18B90620094908702B
:1023400002E000200749087000BD000000080140BD
:10235000004400403C00002000000020466F7277DF
:10236000617264000400002044616E636500000037
:102370005368616B65000000526967687400000073
:102380004C656674000000004261636B0000000051
:1023900070B504464FF480415448FFF776F90025A4
:1023A0001AE04FF400515148FFF76FF904F00100B3
:1023B00028B14FF480514D48FFF765F904E04FF420
:1023C00080514A48FFF761F94FF400514748FFF741
:1023D0005AF96410681CC5B2082DE2DB4FF40051B5
:1023E0004248FFF752F94FF480514048FFF74DF94A
:1023F00070BD10B504464FF480413C48FFF745F9E5
:102400002046FFF7C5FF4FF480413848FFF73BF9FE
:102410000220FFF7F9FD10BD10B54FF4804133489D
:10242000FFF733F9C020FFF7B3FF002404E00020DA
:10243000FFF7AEFF601CC4B2102CF8DB4FF48041F4
:102440002A48FFF720F910BD10B54FF40051274876
:10245000FFF719F94FF480412448FFF714F94FF4BE
:1024600080512248FFF70FF98920FFF7C2FF402073
:10247000FFF7BFFFFFF7D0FF4420FFF7BAFF10BD03
:1024800010B54FF480411948FFF7FFF8C020FFF75F
:102490007FFFFF20FFF77CFF4FF480411348FFF7D9
:1024A000F2F84FF47A70FFF7AFFD4FF480410F4818
:1024B000FFF7EBF8C220FFF76BFFFF20FFF768FF85
:1024C0004FF480410948FFF7DEF84FF47A70FFF7C8
:1024D0009BFD4FF480410548FFF7D7F8C420FFF774
:1024E00057FFFF20FFF754FF10BD0000000C014014
:1024F00008B501210820FFF7B5FA10208DF8030078
:1025000003208DF8020047F2E010ADF800006946A4
:102510003F48FFF70BF808BD10B5044604F0010072
:1025200020B120213A48FFF7AEF803E020213848D7
:10253000FFF7ABF804F0020020B140213448FFF768
:10254000A2F803E040213248FFF79FF804F00400AE
:1025500020B180212E48FFF796F803E080212C4817
:10256000FFF793F804F0080028B14FF48071284871
:10257000FFF789F804E04FF480712548FFF785F8EC
:1025800010BD2DE9F04105460E460024A04619E095
:10259000002713E000240EE0012E04D11D49085D40
:1025A000FFF7BAFF03E01C49085DFFF7B5FF022003
:1025B000FFF72AFD641C082CEEDB7F1C082FE9DBEB
:1025C00008F10108A845E3DBBDE8F08110B5012161
:1025D0000220FFF7D6FF4FF4FA70FFF715FD002435
:1025E0000FE000210420FFF7CCFF6420FFF70CFD73
:1025F00001210420FFF7C5FF6420FFF705FD601CE3
:10260000C4B20A2CEDDB00210220FFF7BAFF10BD97
:10261000000C0140290000203100002000B589B0E5
:1026200001210220FFF72BFA01210C20FFF71AFAF3
:10263000C020ADF820001C208DF8230003208DF869
:10264000220008A98F48FEF771FF0320ADF8200093
:102650001C208DF8230003208DF8220008A98A4849
:10266000FEF764FF40F2CF70ADF8180040F2CF20C3
:10267000ADF814000020ADF81A00ADF8160005A959
:102680008248FEF772F96020ADF804000120ADF831
:1026900006007F480078ADF80A000020ADF80C0075
:1026A00001A97A48FEF77AF90120ADF806007948C9
:1026B0000078ADF80A0001A97448FEF7A6F90821D0
:1026C0007248FEF712FD0120ADF80600724800784E
:1026D000ADF80A0001A96D48FEF7E1F908216B4841
:1026E000FEF710FD0120ADF806006C480078ADF84B
:1026F0000A0001A96548FEF71AFA08216348FEF7A7
:102700000AFD01216148FEF7C2FB01215F48FEF787
:10271000B3FC01215D48FEF7AEFB09B000BD10B56A
:102720000446A1B25948FEF755FE10BD10B5044647
:10273000A1B25648FEF750FE10BD10B50446A1B236
:102740005248FEF74BFE10BD10B50446A1B24F48EB
:10275000FEF746FE10BD70B504460D4600205049F8
:10276000087017E02CB94A480078401C48490870A6
:1027700004E047480078401E454908704448007806
:10278000FFF7CDFF0720FFF73FFC45480078401CCE
:102790004349087042480078A842E3DB70BD70B539
:1027A00004460D4600203E49087017E02CB9394810
:1027B0000078401C3749087004E036480078401E15
:1027C0003449087033480078FFF7B0FF0720FFF75F
:1027D0001BFC33480078401C3149087030480078B1
:1027E000A842E3DB70BD70B504460D4600202C49BD
:1027F000087018E02CB928480078401E2649087057
:1028000004E025480078401C2349087022480078DD
:10281000FFF793FF23480078FFF7F6FB2048007886
:10282000401C1F4908701E480078A842E2DB1A4885
:1028300001781DA000F066F870BD70B504460D4625
:1028400000201749087018E02CB914480078401E81
:102850001249087004E011480078401C0F490870C4
:102860000E480078FFF770FF0E480078FFF7CCFBAA
:102870000B480078401C0A49087009480078A842B3
:10288000E2DB70BD00080140000C01400004004084
:10289000050000200600002007000020080000209E
:1028A000390000203B0000206265617574793A258B
:1028B0006400000030B50B460146002020220124B0
:1028C00009E021FA02F59D4205D303FA02F5491BFE
:1028D00004FA02F52844151EA2F10102F1DC30BD14
:1028E000064C074D06E0E06840F0010394E807005D
:1028F00098471034AC42F6D3FDF7FCFB982A000849
:10290000B82A00080FB4054B10B503A9044A029871
:1029100000F018F810BC5DF814FB000085200008DA
:102920002400002002E008C8121F08C1002AFAD1C2
:1029300070477047002001E001C1121F002AFBD13F
:10294000704700002DE9FF4F89B09B4604460025E3
:1029500006E025280BD05A460B999047641C6D1C45
:1029600020780028F5D10DB02846BDE8F08F00276B
:10297000B8460122474900E0074314F8013F203BD5
:1029800002FA03F00842F7D120782E2819D114F862
:10299000010F47F004072A280ED06FF02F0220788D
:1029A000A0F1300109290CD808EB880102EB4101A4
:1029B00000EB0108641CF2E70A98641C50F8048BD1
:1029C0000A9020780028CED0642808D0692806D044
:1029D00075281ED05A460B9990476D1C58E00A99ED
:1029E0004FF00A0901C90A91002802DA40422D215C
:1029F00002E0390504D52B218DF82010012103E0D8
:102A0000F90704D02021F7E78A4608AE0DE000213F
:102A1000FAE70A994FF00A0901C90A91F7E749460E
:102A2000FFF748FF303106F8011D0028F7D1ADEB64
:102A3000060000F12009780701D44FF00108C845CD
:102A400002DDA8EB090000E000208046002706E038
:102A500008A85A46C05D0B9990476D1C7F1C5745CE
:102A6000F6DB04E030205A460B9990476D1CB8F114
:102A70000001A8F10108F5DC05E016F8010B5A4643
:102A80000B9990476D1CB9F10001A9F10109F4DC23
:102A9000641C65E709280100B82A0008000000202E
:102AA0003C00000024290008F42A00083C00002013
:102AB000140200003429000800000000000000009B
:102AC00000000000000102030401020304060708DD
:102AD00009020406080000000000000000000000D9
:102AE00000080C0406020301090901030206040C94
:042AF0000800C80A08
:04000005080000ED02
:00000001FF
